{"abi":[{"type":"receive","stateMutability":"payable"},{"type":"function","name":"allowance","inputs":[{"name":"","type":"address","internalType":"address"},{"name":"","type":"address","internalType":"address"}],"outputs":[{"name":"","type":"uint256","internalType":"uint256"}],"stateMutability":"view"},{"type":"function","name":"approve","inputs":[{"name":"spender","type":"address","internalType":"address"},{"name":"value","type":"uint256","internalType":"uint256"}],"outputs":[{"name":"","type":"bool","internalType":"bool"}],"stateMutability":"nonpayable"},{"type":"function","name":"balanceOf","inputs":[{"name":"","type":"address","internalType":"address"}],"outputs":[{"name":"","type":"uint256","internalType":"uint256"}],"stateMutability":"view"},{"type":"function","name":"buy","inputs":[],"outputs":[],"stateMutability":"payable"},{"type":"function","name":"creator","inputs":[],"outputs":[{"name":"","type":"address","internalType":"address"}],"stateMutability":"view"},{"type":"function","name":"creatorFeeBps","inputs":[],"outputs":[{"name":"","type":"uint256","internalType":"uint256"}],"stateMutability":"view"},{"type":"function","name":"creatorWithdrawn","inputs":[],"outputs":[{"name":"","type":"uint256","internalType":"uint256"}],"stateMutability":"view"},{"type":"function","name":"decimals","inputs":[],"outputs":[{"name":"","type":"uint8","internalType":"uint8"}],"stateMutability":"view"},{"type":"function","name":"endMarketCap","inputs":[],"outputs":[{"name":"","type":"uint256","internalType":"uint256"}],"stateMutability":"view"},{"type":"function","name":"getBondingData","inputs":[],"outputs":[{"name":"startMc","type":"uint256","internalType":"uint256"},{"name":"endMc","type":"uint256","internalType":"uint256"},{"name":"_totalSupply","type":"uint256","internalType":"uint256"},{"name":"_sold","type":"uint256","internalType":"uint256"},{"name":"price","type":"uint256","internalType":"uint256"},{"name":"mc","type":"uint256","internalType":"uint256"},{"name":"creatorFee","type":"uint256","internalType":"uint256"},{"name":"_creator","type":"address","internalType":"address"}],"stateMutability":"view"},{"type":"function","name":"getMarketCap","inputs":[],"outputs":[{"name":"","type":"uint256","internalType":"uint256"}],"stateMutability":"view"},{"type":"function","name":"getPrice","inputs":[],"outputs":[{"name":"pricePerToken","type":"uint256","internalType":"uint256"}],"stateMutability":"view"},{"type":"function","name":"initialize","inputs":[{"name":"_name","type":"string","internalType":"string"},{"name":"_symbol","type":"string","internalType":"string"},{"name":"_totalSupply","type":"uint256","internalType":"uint256"},{"name":"_startMarketCap","type":"uint256","internalType":"uint256"},{"name":"_endMarketCap","type":"uint256","internalType":"uint256"},{"name":"_creatorFeeBps","type":"uint256","internalType":"uint256"},{"name":"_creator","type":"address","internalType":"address"}],"outputs":[],"stateMutability":"nonpayable"},{"type":"function","name":"initialized","inputs":[],"outputs":[{"name":"","type":"bool","internalType":"bool"}],"stateMutability":"view"},{"type":"function","name":"name","inputs":[],"outputs":[{"name":"","type":"string","internalType":"string"}],"stateMutability":"view"},{"type":"function","name":"registry","inputs":[],"outputs":[{"name":"","type":"address","internalType":"address"}],"stateMutability":"view"},{"type":"function","name":"sell","inputs":[{"name":"amount","type":"uint256","internalType":"uint256"},{"name":"minReturn","type":"uint256","internalType":"uint256"}],"outputs":[],"stateMutability":"nonpayable"},{"type":"function","name":"simulateBuy","inputs":[{"name":"amount","type":"uint256","internalType":"uint256"}],"outputs":[{"name":"cost","type":"uint256","internalType":"uint256"},{"name":"creatorFee","type":"uint256","internalType":"uint256"},{"name":"platformFee","type":"uint256","internalType":"uint256"},{"name":"totalCharged","type":"uint256","internalType":"uint256"}],"stateMutability":"view"},{"type":"function","name":"simulateSell","inputs":[{"name":"amount","type":"uint256","internalType":"uint256"}],"outputs":[{"name":"returnAmt","type":"uint256","internalType":"uint256"},{"name":"creatorFee","type":"uint256","internalType":"uint256"},{"name":"platformFee","type":"uint256","internalType":"uint256"},{"name":"netReturn","type":"uint256","internalType":"uint256"}],"stateMutability":"view"},{"type":"function","name":"sold","inputs":[],"outputs":[{"name":"","type":"uint256","internalType":"uint256"}],"stateMutability":"view"},{"type":"function","name":"startMarketCap","inputs":[],"outputs":[{"name":"","type":"uint256","internalType":"uint256"}],"stateMutability":"view"},{"type":"function","name":"symbol","inputs":[],"outputs":[{"name":"","type":"string","internalType":"string"}],"stateMutability":"view"},{"type":"function","name":"totalSupply","inputs":[],"outputs":[{"name":"","type":"uint256","internalType":"uint256"}],"stateMutability":"view"},{"type":"function","name":"transfer","inputs":[{"name":"to","type":"address","internalType":"address"},{"name":"value","type":"uint256","internalType":"uint256"}],"outputs":[{"name":"","type":"bool","internalType":"bool"}],"stateMutability":"nonpayable"},{"type":"function","name":"transferFrom","inputs":[{"name":"from","type":"address","internalType":"address"},{"name":"to","type":"address","internalType":"address"},{"name":"value","type":"uint256","internalType":"uint256"}],"outputs":[{"name":"","type":"bool","internalType":"bool"}],"stateMutability":"nonpayable"},{"type":"function","name":"withdrawCreator","inputs":[],"outputs":[],"stateMutability":"nonpayable"},{"type":"event","name":"Approval","inputs":[{"name":"owner","type":"address","indexed":true,"internalType":"address"},{"name":"spender","type":"address","indexed":true,"internalType":"address"},{"name":"value","type":"uint256","indexed":false,"internalType":"uint256"}],"anonymous":false},{"type":"event","name":"Bought","inputs":[{"name":"buyer","type":"address","indexed":true,"internalType":"address"},{"name":"amount","type":"uint256","indexed":false,"internalType":"uint256"},{"name":"cost","type":"uint256","indexed":false,"internalType":"uint256"},{"name":"creatorFee","type":"uint256","indexed":false,"internalType":"uint256"},{"name":"platformFee","type":"uint256","indexed":false,"internalType":"uint256"}],"anonymous":false},{"type":"event","name":"Sold","inputs":[{"name":"seller","type":"address","indexed":true,"internalType":"address"},{"name":"amount","type":"uint256","indexed":false,"internalType":"uint256"},{"name":"returnAmt","type":"uint256","indexed":false,"internalType":"uint256"},{"name":"creatorFee","type":"uint256","indexed":false,"internalType":"uint256"},{"name":"platformFee","type":"uint256","indexed":false,"internalType":"uint256"}],"anonymous":false},{"type":"event","name":"Transfer","inputs":[{"name":"from","type":"address","indexed":true,"internalType":"address"},{"name":"to","type":"address","indexed":true,"internalType":"address"},{"name":"value","type":"uint256","indexed":false,"internalType":"uint256"}],"anonymous":false},{"type":"error","name":"AlreadyInitialized","inputs":[]},{"type":"error","name":"InsufficientBalance","inputs":[]},{"type":"error","name":"RegistryOnly","inputs":[]},{"type":"error","name":"SlippageExceeded","inputs":[]},{"type":"error","name":"ZeroAmount","inputs":[]}],"bytecode":{"object":"0x6080604052601260025f6101000a81548160ff021916908360ff1602179055503480156029575f5ffd5b506125ac806100375f395ff3fe608060405260043610610184575f3560e01c806370a08231116100d05780639d8bce5111610089578063a6f2ae3a11610063578063a6f2ae3a1461057c578063a9059cbb14610586578063d79875eb146105c2578063dd62ed3e146105ea5761018b565b80639d8bce51146104d6578063a3cf3d4e14610515578063a6e57d99146105545761018b565b806370a08231146103dc5780637b1039991461041857806390825c281461044257806395d89b411461046c57806398d5fdca146104965780639957ad05146104c05761018b565b8063158ef93e1161013d57806323b872dd1161011757806323b872dd1461031b578063313ce5671461035757806347e4835d14610381578063480ec461146103ab5761018b565b8063158ef93e1461029d57806317773ebb146102c757806318160ddd146102f15761018b565b806302c7e7af1461018f57806302d05d3f146101b957806304c25e7a146101e3578063058a5ba91461020d57806306fdde0314610237578063095ea7b3146102615761018b565b3661018b57005b5f5ffd5b34801561019a575f5ffd5b506101a3610626565b6040516101b091906119c7565b60405180910390f35b3480156101c4575f5ffd5b506101cd61062c565b6040516101da9190611a1f565b60405180910390f35b3480156101ee575f5ffd5b506101f7610651565b60405161020491906119c7565b60405180910390f35b348015610218575f5ffd5b50610221610657565b60405161022e91906119c7565b60405180910390f35b348015610242575f5ffd5b5061024b61065d565b6040516102589190611aa8565b60405180910390f35b34801561026c575f5ffd5b5061028760048036038101906102829190611b2d565b6106e8565b6040516102949190611b85565b60405180910390f35b3480156102a8575f5ffd5b506102b16107d5565b6040516102be9190611b85565b60405180910390f35b3480156102d2575f5ffd5b506102db6107e8565b6040516102e891906119c7565b60405180910390f35b3480156102fc575f5ffd5b506103056107ee565b60405161031291906119c7565b60405180910390f35b348015610326575f5ffd5b50610341600480360381019061033c9190611b9e565b6107f4565b60405161034e9190611b85565b60405180910390f35b348015610362575f5ffd5b5061036b6109a6565b6040516103789190611c09565b60405180910390f35b34801561038c575f5ffd5b506103956109b8565b6040516103a291906119c7565b60405180910390f35b3480156103b6575f5ffd5b506103bf6109be565b6040516103d3989796959493929190611c22565b60405180910390f35b3480156103e7575f5ffd5b5061040260048036038101906103fd9190611c9e565b610a21565b60405161040f91906119c7565b60405180910390f35b348015610423575f5ffd5b5061042c610a36565b6040516104399190611a1f565b60405180910390f35b34801561044d575f5ffd5b50610456610a5b565b60405161046391906119c7565b60405180910390f35b348015610477575f5ffd5b50610480610a89565b60405161048d9190611aa8565b60405180910390f35b3480156104a1575f5ffd5b506104aa610b15565b6040516104b791906119c7565b60405180910390f35b3480156104cb575f5ffd5b506104d4610bd2565b005b3480156104e1575f5ffd5b506104fc60048036038101906104f79190611cc9565b610dbb565b60405161050c9493929190611cf4565b60405180910390f35b348015610520575f5ffd5b5061053b60048036038101906105369190611cc9565b610f01565b60405161054b9493929190611cf4565b60405180910390f35b34801561055f575f5ffd5b5061057a60048036038101906105759190611e63565b611047565b005b610584611214565b005b348015610591575f5ffd5b506105ac60048036038101906105a79190611b2d565b6114fc565b6040516105b99190611b85565b60405180910390f35b3480156105cd575f5ffd5b506105e860048036038101906105e39190611f38565b611512565b005b3480156105f5575f5ffd5b50610610600480360381019061060b9190611f76565b61177d565b60405161061d91906119c7565b60405180910390f35b60085481565b60095f9054906101000a900473ffffffffffffffffffffffffffffffffffffffff1681565b60065481565b60075481565b5f805461066990611fe1565b80601f016020809104026020016040519081016040528092919081815260200182805461069590611fe1565b80156106e05780601f106106b7576101008083540402835291602001916106e0565b820191905f5260205f20905b8154815290600101906020018083116106c357829003601f168201915b505050505081565b5f8160055f3373ffffffffffffffffffffffffffffffffffffffff1673ffffffffffffffffffffffffffffffffffffffff1681526020019081526020015f205f8573ffffffffffffffffffffffffffffffffffffffff1673ffffffffffffffffffffffffffffffffffffffff1681526020019081526020015f20819055508273ffffffffffffffffffffffffffffffffffffffff163373ffffffffffffffffffffffffffffffffffffffff167f8c5be1e5ebec7d5bd14f71427d1e84f3dd0314c0f7b2291e5b200ac8c7c3b925846040516107c391906119c7565b60405180910390a36001905092915050565b600c60149054906101000a900460ff1681565b600a5481565b60035481565b5f5f60055f8673ffffffffffffffffffffffffffffffffffffffff1673ffffffffffffffffffffffffffffffffffffffff1681526020019081526020015f205f3373ffffffffffffffffffffffffffffffffffffffff1673ffffffffffffffffffffffffffffffffffffffff1681526020019081526020015f205490507fffffffffffffffffffffffffffffffffffffffffffffffffffffffffffffffff811461098f578260045f8773ffffffffffffffffffffffffffffffffffffffff1673ffffffffffffffffffffffffffffffffffffffff1681526020019081526020015f2054101561090f576040517ff4d678b800000000000000000000000000000000000000000000000000000000815260040160405180910390fd5b82810360055f8773ffffffffffffffffffffffffffffffffffffffff1673ffffffffffffffffffffffffffffffffffffffff1681526020019081526020015f205f3373ffffffffffffffffffffffffffffffffffffffff1673ffffffffffffffffffffffffffffffffffffffff1681526020019081526020015f20819055505b61099a85858561179d565b60019150509392505050565b60025f9054906101000a900460ff1681565b600b5481565b5f5f5f5f5f5f5f5f6006546007546003546008546109da610b15565b6109e2610a5b565b600a5460095f9054906101000a900473ffffffffffffffffffffffffffffffffffffffff16975097509750975097509750975097509091929394959697565b6004602052805f5260405f205f915090505481565b600c5f9054906101000a900473ffffffffffffffffffffffffffffffffffffffff1681565b5f670de0b6b3a7640000600354610a70610b15565b610a7a919061203e565b610a8491906120ac565b905090565b60018054610a9690611fe1565b80601f0160208091040260200160405190810160405280929190818152602001828054610ac290611fe1565b8015610b0d5780601f10610ae457610100808354040283529160200191610b0d565b820191905f5260205f20905b815481529060010190602001808311610af057829003601f168201915b505050505081565b5f60035460085410610b4b57600354670de0b6b3a7640000600754610b3a919061203e565b610b4491906120ac565b9050610bcf565b5f600354670de0b6b3a7640000600654600754610b6891906120dc565b610b72919061203e565b610b7c91906120ac565b90505f600354670de0b6b3a7640000600654610b98919061203e565b610ba291906120ac565b905060035460085483610bb5919061203e565b610bbf91906120ac565b81610bca919061210f565b925050505b90565b60095f9054906101000a900473ffffffffffffffffffffffffffffffffffffffff1673ffffffffffffffffffffffffffffffffffffffff163373ffffffffffffffffffffffffffffffffffffffff1614610c61576040517f08c379a0000000000000000000000000000000000000000000000000000000008152600401610c589061218c565b60405180910390fd5b5f600b54600c5f9054906101000a900473ffffffffffffffffffffffffffffffffffffffff1673ffffffffffffffffffffffffffffffffffffffff166367c2d1fd3060095f9054906101000a900473ffffffffffffffffffffffffffffffffffffffff166040518363ffffffff1660e01b8152600401610ce29291906121aa565b602060405180830381865afa158015610cfd573d5f5f3e3d5ffd5b505050506040513d601f19601f82011682018060405250810190610d2191906121e5565b610d2b91906120dc565b90505f8103610d3a5750610db9565b80600b5f828254610d4b919061210f565b9250508190555060095f9054906101000a900473ffffffffffffffffffffffffffffffffffffffff1673ffffffffffffffffffffffffffffffffffffffff166108fc8290811502906040515f60405180830381858888f19350505050158015610db6573d5f5f3e3d5ffd5b50505b565b5f5f5f5f5f8503610dd7575f5f5f5f9350935093509350610efa565b5f600354670de0b6b3a7640000600654610df1919061203e565b610dfb91906120ac565b90505f600354670de0b6b3a7640000600654600754610e1a91906120dc565b610e24919061203e565b610e2e91906120ac565b90505f60085490505f8882610e4391906120dc565b90506003546002610e54919061203e565b8183610e60919061210f565b8a85610e6c919061203e565b610e76919061203e565b610e8091906120ac565b848a610e8c919061203e565b610e96919061210f565b97505f610ea161191b565b9050612710600a548a610eb4919061203e565b610ebe91906120ac565b9750612710818a610ecf919061203e565b610ed991906120ac565b965086888a610ee891906120dc565b610ef291906120dc565b955050505050505b9193509193565b5f5f5f5f5f8503610f1d575f5f5f5f9350935093509350611040565b5f600354670de0b6b3a7640000600654610f37919061203e565b610f4191906120ac565b90505f600354670de0b6b3a7640000600654600754610f6091906120dc565b610f6a919061203e565b610f7491906120ac565b90505f60085490505f8882610f89919061210f565b90506003546002610f9a919061203e565b8183610fa6919061210f565b8a85610fb2919061203e565b610fbc919061203e565b610fc691906120ac565b848a610fd2919061203e565b610fdc919061210f565b97505f610fe761191b565b9050612710600a548a610ffa919061203e565b61100491906120ac565b9750612710818a611015919061203e565b61101f91906120ac565b965086888a61102e919061210f565b611038919061210f565b955050505050505b9193509193565b600c60149054906101000a900460ff161561108e576040517f0dc149f000000000000000000000000000000000000000000000000000000000815260040160405180910390fd5b6001600c60146101000a81548160ff021916908315150217905550865f90816110b791906123c1565b5085600190816110c791906123c1565b5084600381905550836006819055508260078190555081600a819055508060095f6101000a81548173ffffffffffffffffffffffffffffffffffffffff021916908373ffffffffffffffffffffffffffffffffffffffff16021790555033600c5f6101000a81548173ffffffffffffffffffffffffffffffffffffffff021916908373ffffffffffffffffffffffffffffffffffffffff1602179055508460045f3073ffffffffffffffffffffffffffffffffffffffff1673ffffffffffffffffffffffffffffffffffffffff1681526020019081526020015f20819055503073ffffffffffffffffffffffffffffffffffffffff165f73ffffffffffffffffffffffffffffffffffffffff167fddf252ad1be2c89b69c2b068fc378daa952ba7f163c4a11628f55a4df523b3ef8760405161120391906119c7565b60405180910390a350505050505050565b5f5f5f61122034610f01565b509250925092505f8303611260576040517f1f2a200500000000000000000000000000000000000000000000000000000000815260040160405180910390fd5b5f600190505f60085460035461127691906120dc565b90505f8190505f5f90505b6050811015611342575f60028486611299919061210f565b6112a391906120ac565b90505f6112af82610f01565b5050509050346127106112c061191b565b836112cb919061203e565b6112d591906120ac565b612710600a54846112e6919061203e565b6112f091906120ac565b836112fb919061210f565b611305919061210f565b116113215781935060018261131a919061210f565b9550611325565b8194505b848610611333575050611342565b50508080600101915050611281565b505f5f5f61134f84610f01565b509250925092505f818385611364919061210f565b61136e919061210f565b90505f813461137d91906120dc565b905061138a30338861179d565b8560085f82825461139b919061210f565b92505081905550600c5f9054906101000a900473ffffffffffffffffffffffffffffffffffffffff1673ffffffffffffffffffffffffffffffffffffffff166340b4786c60095f9054906101000a900473ffffffffffffffffffffffffffffffffffffffff1686866040518463ffffffff1660e01b815260040161142193929190612490565b5f604051808303815f87803b158015611438575f5ffd5b505af115801561144a573d5f5f3e3d5ffd5b505050505f81111561149b573373ffffffffffffffffffffffffffffffffffffffff166108fc8290811502906040515f60405180830381858888f19350505050158015611499573d5f5f3e3d5ffd5b505b3373ffffffffffffffffffffffffffffffffffffffff167f27330bd7589580547b6437e08f9c60653de63691d2d2b2c13bff9ee67da2a68d878787876040516114e79493929190611cf4565b60405180910390a25050505050505050505050565b5f61150833848461179d565b6001905092915050565b8160045f3373ffffffffffffffffffffffffffffffffffffffff1673ffffffffffffffffffffffffffffffffffffffff1681526020019081526020015f20541015611589576040517ff4d678b800000000000000000000000000000000000000000000000000000000815260040160405180910390fd5b5f82036115c2576040517f1f2a200500000000000000000000000000000000000000000000000000000000815260040160405180910390fd5b5f5f5f6115ce85610dbb565b935093505092508381101561160f576040517f8199f5f300000000000000000000000000000000000000000000000000000000815260040160405180910390fd5b61161a33308761179d565b8460085f82825461162b91906120dc565b92505081905550600c5f9054906101000a900473ffffffffffffffffffffffffffffffffffffffff1673ffffffffffffffffffffffffffffffffffffffff166340b4786c60095f9054906101000a900473ffffffffffffffffffffffffffffffffffffffff165f856040518463ffffffff1660e01b81526004016116b1939291906124fe565b5f604051808303815f87803b1580156116c8575f5ffd5b505af11580156116da573d5f5f3e3d5ffd5b505050503373ffffffffffffffffffffffffffffffffffffffff166108fc8290811502906040515f60405180830381858888f19350505050158015611721573d5f5f3e3d5ffd5b503373ffffffffffffffffffffffffffffffffffffffff167f490fdc1c23c0f3a84bf80a0384eaadcb9188c9ef71b9430da391a0e4c4c39bf686855f8660405161176e9493929190612533565b60405180910390a25050505050565b6005602052815f5260405f20602052805f5260405f205f91509150505481565b8060045f8573ffffffffffffffffffffffffffffffffffffffff1673ffffffffffffffffffffffffffffffffffffffff1681526020019081526020015f20541015611814576040517ff4d678b800000000000000000000000000000000000000000000000000000000815260040160405180910390fd5b8060045f8573ffffffffffffffffffffffffffffffffffffffff1673ffffffffffffffffffffffffffffffffffffffff1681526020019081526020015f205f82825403925050819055508060045f8473ffffffffffffffffffffffffffffffffffffffff1673ffffffffffffffffffffffffffffffffffffffff1681526020019081526020015f205f8282546118aa919061210f565b925050819055508173ffffffffffffffffffffffffffffffffffffffff168373ffffffffffffffffffffffffffffffffffffffff167fddf252ad1be2c89b69c2b068fc378daa952ba7f163c4a11628f55a4df523b3ef8360405161190e91906119c7565b60405180910390a3505050565b5f600c5f9054906101000a900473ffffffffffffffffffffffffffffffffffffffff1673ffffffffffffffffffffffffffffffffffffffff1663539aa77f6040518163ffffffff1660e01b8152600401602060405180830381865afa158015611986573d5f5f3e3d5ffd5b505050506040513d601f19601f820116820180604052508101906119aa91906121e5565b905090565b5f819050919050565b6119c1816119af565b82525050565b5f6020820190506119da5f8301846119b8565b92915050565b5f73ffffffffffffffffffffffffffffffffffffffff82169050919050565b5f611a09826119e0565b9050919050565b611a19816119ff565b82525050565b5f602082019050611a325f830184611a10565b92915050565b5f81519050919050565b5f82825260208201905092915050565b8281835e5f83830152505050565b5f601f19601f8301169050919050565b5f611a7a82611a38565b611a848185611a42565b9350611a94818560208601611a52565b611a9d81611a60565b840191505092915050565b5f6020820190508181035f830152611ac08184611a70565b905092915050565b5f604051905090565b5f5ffd5b5f5ffd5b611ae2816119ff565b8114611aec575f5ffd5b50565b5f81359050611afd81611ad9565b92915050565b611b0c816119af565b8114611b16575f5ffd5b50565b5f81359050611b2781611b03565b92915050565b5f5f60408385031215611b4357611b42611ad1565b5b5f611b5085828601611aef565b9250506020611b6185828601611b19565b9150509250929050565b5f8115159050919050565b611b7f81611b6b565b82525050565b5f602082019050611b985f830184611b76565b92915050565b5f5f5f60608486031215611bb557611bb4611ad1565b5b5f611bc286828701611aef565b9350506020611bd386828701611aef565b9250506040611be486828701611b19565b9150509250925092565b5f60ff82169050919050565b611c0381611bee565b82525050565b5f602082019050611c1c5f830184611bfa565b92915050565b5f61010082019050611c365f83018b6119b8565b611c43602083018a6119b8565b611c5060408301896119b8565b611c5d60608301886119b8565b611c6a60808301876119b8565b611c7760a08301866119b8565b611c8460c08301856119b8565b611c9160e0830184611a10565b9998505050505050505050565b5f60208284031215611cb357611cb2611ad1565b5b5f611cc084828501611aef565b91505092915050565b5f60208284031215611cde57611cdd611ad1565b5b5f611ceb84828501611b19565b91505092915050565b5f608082019050611d075f8301876119b8565b611d1460208301866119b8565b611d2160408301856119b8565b611d2e60608301846119b8565b95945050505050565b5f5ffd5b5f5ffd5b7f4e487b71000000000000000000000000000000000000000000000000000000005f52604160045260245ffd5b611d7582611a60565b810181811067ffffffffffffffff82111715611d9457611d93611d3f565b5b80604052505050565b5f611da6611ac8565b9050611db28282611d6c565b919050565b5f67ffffffffffffffff821115611dd157611dd0611d3f565b5b611dda82611a60565b9050602081019050919050565b828183375f83830152505050565b5f611e07611e0284611db7565b611d9d565b905082815260208101848484011115611e2357611e22611d3b565b5b611e2e848285611de7565b509392505050565b5f82601f830112611e4a57611e49611d37565b5b8135611e5a848260208601611df5565b91505092915050565b5f5f5f5f5f5f5f60e0888a031215611e7e57611e7d611ad1565b5b5f88013567ffffffffffffffff811115611e9b57611e9a611ad5565b5b611ea78a828b01611e36565b975050602088013567ffffffffffffffff811115611ec857611ec7611ad5565b5b611ed48a828b01611e36565b9650506040611ee58a828b01611b19565b9550506060611ef68a828b01611b19565b9450506080611f078a828b01611b19565b93505060a0611f188a828b01611b19565b92505060c0611f298a828b01611aef565b91505092959891949750929550565b5f5f60408385031215611f4e57611f4d611ad1565b5b5f611f5b85828601611b19565b9250506020611f6c85828601611b19565b9150509250929050565b5f5f60408385031215611f8c57611f8b611ad1565b5b5f611f9985828601611aef565b9250506020611faa85828601611aef565b9150509250929050565b7f4e487b71000000000000000000000000000000000000000000000000000000005f52602260045260245ffd5b5f6002820490506001821680611ff857607f821691505b60208210810361200b5761200a611fb4565b5b50919050565b7f4e487b71000000000000000000000000000000000000000000000000000000005f52601160045260245ffd5b5f612048826119af565b9150612053836119af565b9250828202612061816119af565b9150828204841483151761207857612077612011565b5b5092915050565b7f4e487b71000000000000000000000000000000000000000000000000000000005f52601260045260245ffd5b5f6120b6826119af565b91506120c1836119af565b9250826120d1576120d061207f565b5b828204905092915050565b5f6120e6826119af565b91506120f1836119af565b925082820390508181111561210957612108612011565b5b92915050565b5f612119826119af565b9150612124836119af565b925082820190508082111561213c5761213b612011565b5b92915050565b7f6e6f742063726561746f720000000000000000000000000000000000000000005f82015250565b5f612176600b83611a42565b915061218182612142565b602082019050919050565b5f6020820190508181035f8301526121a38161216a565b9050919050565b5f6040820190506121bd5f830185611a10565b6121ca6020830184611a10565b9392505050565b5f815190506121df81611b03565b92915050565b5f602082840312156121fa576121f9611ad1565b5b5f612207848285016121d1565b91505092915050565b5f819050815f5260205f209050919050565b5f6020601f8301049050919050565b5f82821b905092915050565b5f6008830261226c7fffffffffffffffffffffffffffffffffffffffffffffffffffffffffffffffff82612231565b6122768683612231565b95508019841693508086168417925050509392505050565b5f819050919050565b5f6122b16122ac6122a7846119af565b61228e565b6119af565b9050919050565b5f819050919050565b6122ca83612297565b6122de6122d6826122b8565b84845461223d565b825550505050565b5f5f905090565b6122f56122e6565b6123008184846122c1565b505050565b5f5b828110156123265761231b5f8284016122ed565b600181019050612307565b505050565b601f82111561237957828211156123785761234581612210565b61234e83612222565b61235785612222565b6020861015612364575f90505b80830161237382840382612305565b505050505b5b505050565b5f82821c905092915050565b5f6123995f198460080261237e565b1980831691505092915050565b5f6123b1838361238a565b9150826002028217905092915050565b6123ca82611a38565b67ffffffffffffffff8111156123e3576123e2611d3f565b5b6123ed8254611fe1565b6123f882828561232b565b5f60209050601f831160018114612429575f8415612417578287015190505b61242185826123a6565b865550612488565b601f19841661243786612210565b5f5b8281101561245e57848901518255600182019150602085019450602081019050612439565b8683101561247b5784890151612477601f89168261238a565b8355505b6001600288020188555050505b505050505050565b5f6060820190506124a35f830186611a10565b6124b060208301856119b8565b6124bd60408301846119b8565b949350505050565b5f819050919050565b5f6124e86124e36124de846124c5565b61228e565b6119af565b9050919050565b6124f8816124ce565b82525050565b5f6060820190506125115f830186611a10565b61251e60208301856124ef565b61252b60408301846119b8565b949350505050565b5f6080820190506125465f8301876119b8565b61255360208301866119b8565b61256060408301856124ef565b61256d60608301846119b8565b9594505050505056fea26469706673582212203ceefe236b194faf52672a524fbfaf499ce2acf786c9c3f6ea83714837bbd1fd64736f6c63430008230033","linkReferences":{}},"methodIdentifiers":{"allowance(address,address)":"dd62ed3e","approve(address,uint256)":"095ea7b3","balanceOf(address)":"70a08231","buy()":"a6f2ae3a","creator()":"02d05d3f","creatorFeeBps()":"17773ebb","creatorWithdrawn()":"47e4835d","decimals()":"313ce567","endMarketCap()":"058a5ba9","getBondingData()":"480ec461","getMarketCap()":"90825c28","getPrice()":"98d5fdca","initialize(string,string,uint256,uint256,uint256,uint256,address)":"a6e57d99","initialized()":"158ef93e","name()":"06fdde03","registry()":"7b103999","sell(uint256,uint256)":"d79875eb","simulateBuy(uint256)":"a3cf3d4e","simulateSell(uint256)":"9d8bce51","sold()":"02c7e7af","startMarketCap()":"04c25e7a","symbol()":"95d89b41","totalSupply()":"18160ddd","transfer(address,uint256)":"a9059cbb","transferFrom(address,address,uint256)":"23b872dd","withdrawCreator()":"9957ad05"},"id":17}