{"abi":[{"type":"constructor","inputs":[{"name":"_owner","type":"address","internalType":"address"}],"stateMutability":"nonpayable"},{"type":"function","name":"CREATION_FEE","inputs":[],"outputs":[{"name":"","type":"uint256","internalType":"uint256"}],"stateMutability":"view"},{"type":"function","name":"PLATFORM_FEE_BPS","inputs":[],"outputs":[{"name":"","type":"uint256","internalType":"uint256"}],"stateMutability":"view"},{"type":"function","name":"allTokens","inputs":[{"name":"","type":"uint256","internalType":"uint256"}],"outputs":[{"name":"","type":"address","internalType":"address"}],"stateMutability":"view"},{"type":"function","name":"createToken","inputs":[{"name":"name","type":"string","internalType":"string"},{"name":"symbol","type":"string","internalType":"string"},{"name":"totalSupply","type":"uint256","internalType":"uint256"},{"name":"startMc","type":"uint256","internalType":"uint256"},{"name":"endMc","type":"uint256","internalType":"uint256"},{"name":"creatorFeeBps","type":"uint256","internalType":"uint256"}],"outputs":[{"name":"token","type":"address","internalType":"address"}],"stateMutability":"payable"},{"type":"function","name":"creatorBalances","inputs":[{"name":"","type":"address","internalType":"address"},{"name":"","type":"address","internalType":"address"}],"outputs":[{"name":"","type":"uint256","internalType":"uint256"}],"stateMutability":"view"},{"type":"function","name":"getAllTokens","inputs":[],"outputs":[{"name":"","type":"address[]","internalType":"address[]"}],"stateMutability":"view"},{"type":"function","name":"getTokenCount","inputs":[],"outputs":[{"name":"","type":"uint256","internalType":"uint256"}],"stateMutability":"view"},{"type":"function","name":"isToken","inputs":[{"name":"","type":"address","internalType":"address"}],"outputs":[{"name":"","type":"bool","internalType":"bool"}],"stateMutability":"view"},{"type":"function","name":"notifyFee","inputs":[{"name":"creator","type":"address","internalType":"address"},{"name":"creatorFee","type":"uint256","internalType":"uint256"},{"name":"platformFee","type":"uint256","internalType":"uint256"}],"outputs":[],"stateMutability":"nonpayable"},{"type":"function","name":"owner","inputs":[],"outputs":[{"name":"","type":"address","internalType":"address"}],"stateMutability":"view"},{"type":"function","name":"pause","inputs":[],"outputs":[],"stateMutability":"nonpayable"},{"type":"function","name":"paused","inputs":[],"outputs":[{"name":"","type":"bool","internalType":"bool"}],"stateMutability":"view"},{"type":"function","name":"platformBalance","inputs":[],"outputs":[{"name":"","type":"uint256","internalType":"uint256"}],"stateMutability":"view"},{"type":"function","name":"setTokenMaster","inputs":[{"name":"_master","type":"address","internalType":"address"}],"outputs":[],"stateMutability":"nonpayable"},{"type":"function","name":"tokenMaster","inputs":[],"outputs":[{"name":"","type":"address","internalType":"address"}],"stateMutability":"view"},{"type":"function","name":"unpause","inputs":[],"outputs":[],"stateMutability":"nonpayable"},{"type":"function","name":"withdrawPlatform","inputs":[{"name":"amount","type":"uint256","internalType":"uint256"}],"outputs":[],"stateMutability":"nonpayable"},{"type":"event","name":"CreatorFeeAccrued","inputs":[{"name":"token","type":"address","indexed":true,"internalType":"address"},{"name":"creator","type":"address","indexed":true,"internalType":"address"},{"name":"amount","type":"uint256","indexed":false,"internalType":"uint256"}],"anonymous":false},{"type":"event","name":"CreatorWithdrew","inputs":[{"name":"token","type":"address","indexed":true,"internalType":"address"},{"name":"creator","type":"address","indexed":true,"internalType":"address"},{"name":"amount","type":"uint256","indexed":false,"internalType":"uint256"}],"anonymous":false},{"type":"event","name":"PlatformFeeReceived","inputs":[{"name":"token","type":"address","indexed":true,"internalType":"address"},{"name":"amount","type":"uint256","indexed":false,"internalType":"uint256"}],"anonymous":false},{"type":"event","name":"PlatformWithdrew","inputs":[{"name":"recipient","type":"address","indexed":true,"internalType":"address"},{"name":"amount","type":"uint256","indexed":false,"internalType":"uint256"}],"anonymous":false},{"type":"event","name":"TokenCreated","inputs":[{"name":"token","type":"address","indexed":true,"internalType":"address"},{"name":"creator","type":"address","indexed":true,"internalType":"address"},{"name":"name","type":"string","indexed":false,"internalType":"string"},{"name":"symbol","type":"string","indexed":false,"internalType":"string"}],"anonymous":false},{"type":"event","name":"TokenMasterSet","inputs":[{"name":"master","type":"address","indexed":true,"internalType":"address"}],"anonymous":false},{"type":"error","name":"InsufficientBalance","inputs":[]},{"type":"error","name":"Paused","inputs":[]},{"type":"error","name":"Unauthorized","inputs":[]},{"type":"error","name":"ZeroAmount","inputs":[]}],"bytecode":{"object":"0x608060405234801561000f575f5ffd5b50604051611607380380611607833981810160405281019061003191906100d4565b805f5f6101000a81548173ffffffffffffffffffffffffffffffffffffffff021916908373ffffffffffffffffffffffffffffffffffffffff160217905550506100ff565b5f5ffd5b5f73ffffffffffffffffffffffffffffffffffffffff82169050919050565b5f6100a38261007a565b9050919050565b6100b381610099565b81146100bd575f5ffd5b50565b5f815190506100ce816100aa565b92915050565b5f602082840312156100e9576100e8610076565b5b5f6100f6848285016100c0565b91505092915050565b6114fb8061010c5f395ff3fe6080604052600436106100fd575f3560e01c80635c975abb116100945780638456cb59116100635780638456cb59146103195780638da5cb5b1461032f578063adae543d14610359578063f5c99ae914610381578063fbf16741146103b1576100fd565b80635c975abb1461025f57806362a5dbbc14610289578063634282af146102b357806378a89567146102ef576100fd565b80633f4ba83a116100d05780633f4ba83a146101cd57806340b4786c146101e357806349a2104d1461020b578063539aa77f14610235576100fd565b80630b4db4501461010157806319f373611461013d578063265d4409146101795780632a5c792a146101a3575b5f5ffd5b34801561010c575f5ffd5b5061012760048036038101906101229190610f84565b6103d9565b6040516101349190610fda565b60405180910390f35b348015610148575f5ffd5b50610163600480360381019061015e9190610ff3565b6103f9565b6040516101709190611038565b60405180910390f35b348015610184575f5ffd5b5061018d610416565b60405161019a9190611060565b60405180910390f35b3480156101ae575f5ffd5b506101b761043b565b6040516101c49190611130565b60405180910390f35b3480156101d8575f5ffd5b506101e16104c6565b005b3480156101ee575f5ffd5b506102096004803603810190610204919061117a565b610567565b005b348015610216575f5ffd5b5061021f610769565b60405161022c9190610fda565b60405180910390f35b348015610240575f5ffd5b50610249610775565b6040516102569190610fda565b60405180910390f35b34801561026a575f5ffd5b5061027361077a565b6040516102809190611038565b60405180910390f35b348015610294575f5ffd5b5061029d61078d565b6040516102aa9190610fda565b60405180910390f35b3480156102be575f5ffd5b506102d960048036038101906102d491906111ca565b610793565b6040516102e69190611060565b60405180910390f35b3480156102fa575f5ffd5b506103036107ce565b6040516103109190610fda565b60405180910390f35b348015610324575f5ffd5b5061032d6107da565b005b34801561033a575f5ffd5b5061034361087b565b6040516103509190611060565b60405180910390f35b348015610364575f5ffd5b5061037f600480360381019061037a9190610ff3565b61089f565b005b61039b60048036038101906103969190611256565b6109aa565b6040516103a89190611060565b60405180910390f35b3480156103bc575f5ffd5b506103d760048036038101906103d291906111ca565b610cf0565b005b6004602052815f5260405f20602052805f5260405f205f91509150505481565b6003602052805f5260405f205f915054906101000a900460ff1681565b60015f9054906101000a900473ffffffffffffffffffffffffffffffffffffffff1681565b606060028054806020026020016040519081016040528092919081815260200182805480156104bc57602002820191905f5260205f20905b815f9054906101000a900473ffffffffffffffffffffffffffffffffffffffff1673ffffffffffffffffffffffffffffffffffffffff1681526020019060010190808311610473575b5050505050905090565b5f5f9054906101000a900473ffffffffffffffffffffffffffffffffffffffff1673ffffffffffffffffffffffffffffffffffffffff163373ffffffffffffffffffffffffffffffffffffffff161461054b576040517f82b4290000000000000000000000000000000000000000000000000000000000815260040160405180910390fd5b5f600160146101000a81548160ff021916908315150217905550565b60035f3373ffffffffffffffffffffffffffffffffffffffff1673ffffffffffffffffffffffffffffffffffffffff1681526020019081526020015f205f9054906101000a900460ff166105e7576040517f82b4290000000000000000000000000000000000000000000000000000000000815260040160405180910390fd5b5f82111561067e578160045f3373ffffffffffffffffffffffffffffffffffffffff1673ffffffffffffffffffffffffffffffffffffffff1681526020019081526020015f205f8573ffffffffffffffffffffffffffffffffffffffff1673ffffffffffffffffffffffffffffffffffffffff1681526020019081526020015f205f828254610676919061134d565b925050819055505b5f81111561069f578060055f828254610697919061134d565b925050819055505b5f82111561070d578273ffffffffffffffffffffffffffffffffffffffff163373ffffffffffffffffffffffffffffffffffffffff167f995123f6a1e0ddcc10f0d1ca00f65d4b2a43a4842409dd714299059696951f7f846040516107049190610fda565b60405180910390a35b5f811115610764573373ffffffffffffffffffffffffffffffffffffffff167fabec8fa5eba11c7eac51663a2902a5a185098b166b62a23b16dc7a4e2c12de4b8260405161075b9190610fda565b60405180910390a25b505050565b6706f05b59d3b2000081565b603281565b600160149054906101000a900460ff1681565b60055481565b600281815481106107a2575f80fd5b905f5260205f20015f915054906101000a900473ffffffffffffffffffffffffffffffffffffffff1681565b5f600280549050905090565b5f5f9054906101000a900473ffffffffffffffffffffffffffffffffffffffff1673ffffffffffffffffffffffffffffffffffffffff163373ffffffffffffffffffffffffffffffffffffffff161461085f576040517f82b4290000000000000000000000000000000000000000000000000000000000815260040160405180910390fd5b60018060146101000a81548160ff021916908315150217905550565b5f5f9054906101000a900473ffffffffffffffffffffffffffffffffffffffff1681565b5f5f9054906101000a900473ffffffffffffffffffffffffffffffffffffffff1673ffffffffffffffffffffffffffffffffffffffff163373ffffffffffffffffffffffffffffffffffffffff1614610924576040517f82b4290000000000000000000000000000000000000000000000000000000000815260040160405180910390fd5b8060015f6101000a81548173ffffffffffffffffffffffffffffffffffffffff021916908373ffffffffffffffffffffffffffffffffffffffff1602179055508073ffffffffffffffffffffffffffffffffffffffff167f14b52df2a073bb900dbe8e8c8934103169fbaa334d756f542a5ae6544f99a50260405160405180910390a250565b5f600160149054906101000a900460ff16156109f2576040517f9e87fac800000000000000000000000000000000000000000000000000000000815260040160405180910390fd5b6706f05b59d3b20000341015610a34576040517f1f2a200500000000000000000000000000000000000000000000000000000000815260040160405180910390fd5b5f73ffffffffffffffffffffffffffffffffffffffff1660015f9054906101000a900473ffffffffffffffffffffffffffffffffffffffff1673ffffffffffffffffffffffffffffffffffffffff1603610aba576040517f82b4290000000000000000000000000000000000000000000000000000000000815260040160405180910390fd5b610ae460015f9054906101000a900473ffffffffffffffffffffffffffffffffffffffff16610ed7565b90508073ffffffffffffffffffffffffffffffffffffffff1663a6e57d998a8a8a8a8a8a8a8a336040518a63ffffffff1660e01b8152600401610b2f999897969594939291906113da565b5f604051808303815f87803b158015610b46575f5ffd5b505af1158015610b58573d5f5f3e3d5ffd5b50505050600160035f8373ffffffffffffffffffffffffffffffffffffffff1673ffffffffffffffffffffffffffffffffffffffff1681526020019081526020015f205f6101000a81548160ff021916908315150217905550600281908060018154018082558091505060019003905f5260205f20015f9091909190916101000a81548173ffffffffffffffffffffffffffffffffffffffff021916908373ffffffffffffffffffffffffffffffffffffffff1602179055506706f05b59d3b20000341115610c79573373ffffffffffffffffffffffffffffffffffffffff166108fc6706f05b59d3b2000034610c4f9190611459565b90811502906040515f60405180830381858888f19350505050158015610c77573d5f5f3e3d5ffd5b505b3373ffffffffffffffffffffffffffffffffffffffff168173ffffffffffffffffffffffffffffffffffffffff167fd5d05a8421149c74fd223cfc823befb883babf9bf0b0e4d6bf9c8fdb70e59bb48b8b8b8b604051610cdc949392919061148c565b60405180910390a398975050505050505050565b5f5f9054906101000a900473ffffffffffffffffffffffffffffffffffffffff1673ffffffffffffffffffffffffffffffffffffffff163373ffffffffffffffffffffffffffffffffffffffff1614610d75576040517f82b4290000000000000000000000000000000000000000000000000000000000815260040160405180910390fd5b5f8103610dae576040517f1f2a200500000000000000000000000000000000000000000000000000000000815260040160405180910390fd5b806005541015610dea576040517ff4d678b800000000000000000000000000000000000000000000000000000000815260040160405180910390fd5b8060055f828254610dfb9190611459565b925050819055505f5f9054906101000a900473ffffffffffffffffffffffffffffffffffffffff1673ffffffffffffffffffffffffffffffffffffffff166108fc8290811502906040515f60405180830381858888f19350505050158015610e65573d5f5f3e3d5ffd5b505f5f9054906101000a900473ffffffffffffffffffffffffffffffffffffffff1673ffffffffffffffffffffffffffffffffffffffff167fb61370d0cbe4b168893e05577b87067051d32bc268e22b200faa3ebe2cd525f882604051610ecc9190610fda565b60405180910390a250565b5f5f8260601b9050604051733d602d80600a3d3981f3363d3d373d3d3d363d7381528160148201526e5af43d82803e903d91602b57fd5bf360288201526037815ff092505050919050565b5f5ffd5b5f5ffd5b5f73ffffffffffffffffffffffffffffffffffffffff82169050919050565b5f610f5382610f2a565b9050919050565b610f6381610f49565b8114610f6d575f5ffd5b50565b5f81359050610f7e81610f5a565b92915050565b5f5f60408385031215610f9a57610f99610f22565b5b5f610fa785828601610f70565b9250506020610fb885828601610f70565b9150509250929050565b5f819050919050565b610fd481610fc2565b82525050565b5f602082019050610fed5f830184610fcb565b92915050565b5f6020828403121561100857611007610f22565b5b5f61101584828501610f70565b91505092915050565b5f8115159050919050565b6110328161101e565b82525050565b5f60208201905061104b5f830184611029565b92915050565b61105a81610f49565b82525050565b5f6020820190506110735f830184611051565b92915050565b5f81519050919050565b5f82825260208201905092915050565b5f819050602082019050919050565b6110ab81610f49565b82525050565b5f6110bc83836110a2565b60208301905092915050565b5f602082019050919050565b5f6110de82611079565b6110e88185611083565b93506110f383611093565b805f5b8381101561112357815161110a88826110b1565b9750611115836110c8565b9250506001810190506110f6565b5085935050505092915050565b5f6020820190508181035f83015261114881846110d4565b905092915050565b61115981610fc2565b8114611163575f5ffd5b50565b5f8135905061117481611150565b92915050565b5f5f5f6060848603121561119157611190610f22565b5b5f61119e86828701610f70565b93505060206111af86828701611166565b92505060406111c086828701611166565b9150509250925092565b5f602082840312156111df576111de610f22565b5b5f6111ec84828501611166565b91505092915050565b5f5ffd5b5f5ffd5b5f5ffd5b5f5f83601f840112611216576112156111f5565b5b8235905067ffffffffffffffff811115611233576112326111f9565b5b60208301915083600182028301111561124f5761124e6111fd565b5b9250929050565b5f5f5f5f5f5f5f5f60c0898b03121561127257611271610f22565b5b5f89013567ffffffffffffffff81111561128f5761128e610f26565b5b61129b8b828c01611201565b9850985050602089013567ffffffffffffffff8111156112be576112bd610f26565b5b6112ca8b828c01611201565b965096505060406112dd8b828c01611166565b94505060606112ee8b828c01611166565b93505060806112ff8b828c01611166565b92505060a06113108b828c01611166565b9150509295985092959890939650565b7f4e487b71000000000000000000000000000000000000000000000000000000005f52601160045260245ffd5b5f61135782610fc2565b915061136283610fc2565b925082820190508082111561137a57611379611320565b5b92915050565b5f82825260208201905092915050565b828183375f83830152505050565b5f601f19601f8301169050919050565b5f6113b98385611380565b93506113c6838584611390565b6113cf8361139e565b840190509392505050565b5f60e0820190508181035f8301526113f3818b8d6113ae565b9050818103602083015261140881898b6113ae565b90506114176040830188610fcb565b6114246060830187610fcb565b6114316080830186610fcb565b61143e60a0830185610fcb565b61144b60c0830184611051565b9a9950505050505050505050565b5f61146382610fc2565b915061146e83610fc2565b925082820390508181111561148657611485611320565b5b92915050565b5f6040820190508181035f8301526114a58186886113ae565b905081810360208301526114ba8184866113ae565b90509594505050505056fea2646970667358221220048b1ae5a803bb33b54ae15d21ceae91ac05c08ded165788a98416901dd0d80964736f6c63430008230033","linkReferences":{}},"methodIdentifiers":{"CREATION_FEE()":"49a2104d","PLATFORM_FEE_BPS()":"539aa77f","allTokens(uint256)":"634282af","createToken(string,string,uint256,uint256,uint256,uint256)":"f5c99ae9","creatorBalances(address,address)":"0b4db450","getAllTokens()":"2a5c792a","getTokenCount()":"78a89567","isToken(address)":"19f37361","notifyFee(address,uint256,uint256)":"40b4786c","owner()":"8da5cb5b","pause()":"8456cb59","paused()":"5c975abb","platformBalance()":"62a5dbbc","setTokenMaster(address)":"adae543d","tokenMaster()":"265d4409","unpause()":"3f4ba83a","withdrawPlatform(uint256)":"fbf16741"},"id":16}